{
  "_format": "hh-sol-artifact-1",
  "contractName": "Function_Frontend",
  "sourceName": "contracts/Sc_Management.sol",
  "abi": [
    {
      "inputs": [
        {
          "internalType": "string",
          "name": "initialMessage",
          "type": "string"
        }
      ],
      "stateMutability": "nonpayable",
      "type": "constructor"
    },
    {
      "anonymous": false,
      "inputs": [
        {
          "indexed": false,
          "internalType": "uint256",
          "name": "counter",
          "type": "uint256"
        }
      ],
      "name": "CounterIncremented",
      "type": "event"
    },
    {
      "anonymous": false,
      "inputs": [
        {
          "indexed": false,
          "internalType": "string",
          "name": "message",
          "type": "string"
        }
      ],
      "name": "MessageSet",
      "type": "event"
    },
    {
      "anonymous": false,
      "inputs": [
        {
          "indexed": true,
          "internalType": "address",
          "name": "previousOwner",
          "type": "address"
        },
        {
          "indexed": true,
          "internalType": "address",
          "name": "newOwner",
          "type": "address"
        }
      ],
      "name": "OwnershipTransferred",
      "type": "event"
    },
    {
      "inputs": [
        {
          "internalType": "string",
          "name": "additionalMessage",
          "type": "string"
        }
      ],
      "name": "appendToMessage",
      "outputs": [],
      "stateMutability": "nonpayable",
      "type": "function"
    },
    {
      "inputs": [],
      "name": "counter",
      "outputs": [
        {
          "internalType": "uint256",
          "name": "",
          "type": "uint256"
        }
      ],
      "stateMutability": "view",
      "type": "function"
    },
    {
      "inputs": [],
      "name": "incrementCounter",
      "outputs": [],
      "stateMutability": "nonpayable",
      "type": "function"
    },
    {
      "inputs": [],
      "name": "message",
      "outputs": [
        {
          "internalType": "string",
          "name": "",
          "type": "string"
        }
      ],
      "stateMutability": "view",
      "type": "function"
    },
    {
      "inputs": [],
      "name": "owner",
      "outputs": [
        {
          "internalType": "address",
          "name": "",
          "type": "address"
        }
      ],
      "stateMutability": "view",
      "type": "function"
    },
    {
      "inputs": [
        {
          "internalType": "address",
          "name": "newOwner",
          "type": "address"
        }
      ],
      "name": "transferOwnership",
      "outputs": [],
      "stateMutability": "nonpayable",
      "type": "function"
    }
  ],
  "bytecode": "0x60806040523480156200001157600080fd5b50604051620012483803806200124883398181016040528101906200003791906200022c565b8060009081620000489190620004c8565b50600060018190555033600260006101000a81548173ffffffffffffffffffffffffffffffffffffffff021916908373ffffffffffffffffffffffffffffffffffffffff16021790555050620005af565b6000604051905090565b600080fd5b600080fd5b600080fd5b600080fd5b6000601f19601f8301169050919050565b7f4e487b7100000000000000000000000000000000000000000000000000000000600052604160045260246000fd5b6200010282620000b7565b810181811067ffffffffffffffff82111715620001245762000123620000c8565b5b80604052505050565b60006200013962000099565b9050620001478282620000f7565b919050565b600067ffffffffffffffff8211156200016a5762000169620000c8565b5b6200017582620000b7565b9050602081019050919050565b60005b83811015620001a257808201518184015260208101905062000185565b60008484015250505050565b6000620001c5620001bf846200014c565b6200012d565b905082815260208101848484011115620001e457620001e3620000b2565b5b620001f184828562000182565b509392505050565b600082601f830112620002115762000210620000ad565b5b815162000223848260208601620001ae565b91505092915050565b600060208284031215620002455762000244620000a3565b5b600082015167ffffffffffffffff811115620002665762000265620000a8565b5b6200027484828501620001f9565b91505092915050565b600081519050919050565b7f4e487b7100000000000000000000000000000000000000000000000000000000600052602260045260246000fd5b60006002820490506001821680620002d057607f821691505b602082108103620002e657620002e562000288565b5b50919050565b60008190508160005260206000209050919050565b60006020601f8301049050919050565b600082821b905092915050565b600060088302620003507fffffffffffffffffffffffffffffffffffffffffffffffffffffffffffffffff8262000311565b6200035c868362000311565b95508019841693508086168417925050509392505050565b6000819050919050565b6000819050919050565b6000620003a9620003a36200039d8462000374565b6200037e565b62000374565b9050919050565b6000819050919050565b620003c58362000388565b620003dd620003d482620003b0565b8484546200031e565b825550505050565b600090565b620003f4620003e5565b62000401818484620003ba565b505050565b5b8181101562000429576200041d600082620003ea565b60018101905062000407565b5050565b601f82111562000478576200044281620002ec565b6200044d8462000301565b810160208510156200045d578190505b620004756200046c8562000301565b83018262000406565b50505b505050565b600082821c905092915050565b60006200049d600019846008026200047d565b1980831691505092915050565b6000620004b883836200048a565b9150826002028217905092915050565b620004d3826200027d565b67ffffffffffffffff811115620004ef57620004ee620000c8565b5b620004fb8254620002b7565b620005088282856200042d565b600060209050601f8311600181146200054057600084156200052b578287015190505b620005378582620004aa565b865550620005a7565b601f1984166200055086620002ec565b60005b828110156200057a5784890151825560018201915060208501945060208101905062000553565b868310156200059a578489015162000596601f8916826200048a565b8355505b6001600288020188555050505b505050505050565b610c8980620005bf6000396000f3fe608060405234801561001057600080fd5b50600436106100625760003560e01c80635b34b9661461006757806361bc221a1461007157806389bf653f1461008f5780638da5cb5b146100ab578063e21f37ce146100c9578063f2fde38b146100e7575b600080fd5b61006f610103565b005b610079610157565b6040516100869190610434565b60405180910390f35b6100a960048036038101906100a491906105a9565b61015d565b005b6100b36101a8565b6040516100c09190610633565b60405180910390f35b6100d16101ce565b6040516100de91906106cd565b60405180910390f35b61010160048036038101906100fc919061071b565b61025c565b005b60018060008282546101159190610777565b925050819055507f3cf8b50771c17d723f2cb711ca7dadde485b222e13c84ba0730a14093fad6d5c60015460405161014d9190610434565b60405180910390a1565b60015481565b806000908161016c91906109b7565b507f3d7f415c35b881f2d0a109b3d9a1377e1e14afec5cc1fd06b563ed160c5e2630600060405161019d9190610b0d565b60405180910390a150565b600260009054906101000a900473ffffffffffffffffffffffffffffffffffffffff1681565b600080546101db906107da565b80601f0160208091040260200160405190810160405280929190818152602001828054610207906107da565b80156102545780601f1061022957610100808354040283529160200191610254565b820191906000526020600020905b81548152906001019060200180831161023757829003601f168201915b505050505081565b600260009054906101000a900473ffffffffffffffffffffffffffffffffffffffff1673ffffffffffffffffffffffffffffffffffffffff163373ffffffffffffffffffffffffffffffffffffffff16146102ec576040517f08c379a00000000000000000000000000000000000000000000000000000000081526004016102e390610ba1565b60405180910390fd5b600073ffffffffffffffffffffffffffffffffffffffff168173ffffffffffffffffffffffffffffffffffffffff160361035b576040517f08c379a000000000000000000000000000000000000000000000000000000000815260040161035290610c33565b60405180910390fd5b8073ffffffffffffffffffffffffffffffffffffffff16600260009054906101000a900473ffffffffffffffffffffffffffffffffffffffff1673ffffffffffffffffffffffffffffffffffffffff167f8be0079c531659141344cd1fd0a4f28419497f9722a3daafe3b4186f6b6457e060405160405180910390a380600260006101000a81548173ffffffffffffffffffffffffffffffffffffffff021916908373ffffffffffffffffffffffffffffffffffffffff16021790555050565b6000819050919050565b61042e8161041b565b82525050565b60006020820190506104496000830184610425565b92915050565b6000604051905090565b600080fd5b600080fd5b600080fd5b600080fd5b6000601f19601f8301169050919050565b7f4e487b7100000000000000000000000000000000000000000000000000000000600052604160045260246000fd5b6104b68261046d565b810181811067ffffffffffffffff821117156104d5576104d461047e565b5b80604052505050565b60006104e861044f565b90506104f482826104ad565b919050565b600067ffffffffffffffff8211156105145761051361047e565b5b61051d8261046d565b9050602081019050919050565b82818337600083830152505050565b600061054c610547846104f9565b6104de565b90508281526020810184848401111561056857610567610468565b5b61057384828561052a565b509392505050565b600082601f8301126105905761058f610463565b5b81356105a0848260208601610539565b91505092915050565b6000602082840312156105bf576105be610459565b5b600082013567ffffffffffffffff8111156105dd576105dc61045e565b5b6105e98482850161057b565b91505092915050565b600073ffffffffffffffffffffffffffffffffffffffff82169050919050565b600061061d826105f2565b9050919050565b61062d81610612565b82525050565b60006020820190506106486000830184610624565b92915050565b600081519050919050565b600082825260208201905092915050565b60005b8381101561068857808201518184015260208101905061066d565b60008484015250505050565b600061069f8261064e565b6106a98185610659565b93506106b981856020860161066a565b6106c28161046d565b840191505092915050565b600060208201905081810360008301526106e78184610694565b905092915050565b6106f881610612565b811461070357600080fd5b50565b600081359050610715816106ef565b92915050565b60006020828403121561073157610730610459565b5b600061073f84828501610706565b91505092915050565b7f4e487b7100000000000000000000000000000000000000000000000000000000600052601160045260246000fd5b60006107828261041b565b915061078d8361041b565b92508282019050808211156107a5576107a4610748565b5b92915050565b7f4e487b7100000000000000000000000000000000000000000000000000000000600052602260045260246000fd5b600060028204905060018216806107f257607f821691505b602082108103610805576108046107ab565b5b50919050565b60008190508160005260206000209050919050565b60006020601f8301049050919050565b600082821b905092915050565b60006008830261086d7fffffffffffffffffffffffffffffffffffffffffffffffffffffffffffffffff82610830565b6108778683610830565b95508019841693508086168417925050509392505050565b6000819050919050565b60006108b46108af6108aa8461041b565b61088f565b61041b565b9050919050565b6000819050919050565b6108ce83610899565b6108e26108da826108bb565b84845461083d565b825550505050565b600090565b6108f76108ea565b6109028184846108c5565b505050565b5b818110156109265761091b6000826108ef565b600181019050610908565b5050565b601f82111561096b5761093c8161080b565b61094584610820565b81016020851015610954578190505b61096861096085610820565b830182610907565b50505b505050565b600082821c905092915050565b600061098e60001984600802610970565b1980831691505092915050565b60006109a7838361097d565b9150826002028217905092915050565b6109c08261064e565b67ffffffffffffffff8111156109d9576109d861047e565b5b6109e382546107da565b6109ee82828561092a565b600060209050601f831160018114610a215760008415610a0f578287015190505b610a19858261099b565b865550610a81565b601f198416610a2f8661080b565b60005b82811015610a5757848901518255600182019150602085019450602081019050610a32565b86831015610a745784890151610a70601f89168261097d565b8355505b6001600288020188555050505b505050505050565b60008154610a96816107da565b610aa08186610659565b94506001821660008114610abb5760018114610ad157610b04565b60ff198316865281151560200286019350610b04565b610ada8561080b565b60005b83811015610afc57815481890152600182019150602081019050610add565b808801955050505b50505092915050565b60006020820190508181036000830152610b278184610a89565b905092915050565b7f4f6e6c7920746865206f776e65722063616e20706572666f726d20746869732060008201527f616374696f6e0000000000000000000000000000000000000000000000000000602082015250565b6000610b8b602683610659565b9150610b9682610b2f565b604082019050919050565b60006020820190508181036000830152610bba81610b7e565b9050919050565b7f4e6577206f776e65722063616e6e6f7420626520746865207a65726f2061646460008201527f7265737300000000000000000000000000000000000000000000000000000000602082015250565b6000610c1d602483610659565b9150610c2882610bc1565b604082019050919050565b60006020820190508181036000830152610c4c81610c10565b905091905056fea2646970667358221220adf9c9b89b31982464290f781aba4350cc3cb934e8ae0b450a779998535cb1f264736f6c63430008180033",
  "linkReferences": {},
  "deployedLinkReferences": {}
}